:100000000C945D000C9485000C9485000C94850084
:100010000C9485000C9485000C9485000C9485004C
:100020000C9485000C9485000C9485000C9485003C
:100030000C9485000C9485000C9485000C9485002C
:100040000C94BB030C9485000C9489030C946303FB
:100050000C9485000C9485000C9485000C9485000C
:100060000C9485000C9485000000000024002700FB
:100070002A0000000000250028002B0004040404CE
:100080000404040402020202020203030303030342
:10009000010204081020408001020408102001021F
:1000A00004081020000000080002010000030407FB
:1000B0000000000000000000360511241FBECFEF35
:1000C000D8E0DEBFCDBF23E0A4E0B3E001C01D92C5
:1000D000A63BB207E1F713E0A0E0B1E0ECE4FFE0FB
:1000E00002C005900D92A430B107D9F710E0CDE51C
:1000F000D0E004C02197FE010E949A05CC35D107BB
:10010000C9F70E9405040C94A4070C940000E1EBCD
:10011000F0E09491EDE9F0E02491E9E8F0E0E49179
:10012000EE2309F43CC0992339F1933091F038F46F
:100130009130A9F0923001F594B59F7D12C09730AF
:1001400091F09830A1F09430B9F4909180009F7DA7
:1001500003C0909180009F77909380000DC094B56C
:100160009F7794BD09C09091B0009F7703C0909194
:10017000B0009F7D9093B000F0E0EE0FFF1FEE58AF
:10018000FF4FA591B4919FB7F894811104C08C9151
:100190002095282302C0EC912E2B2C939FBF08950D
:1001A000CF92DF92EF92FF920F931F93CF93DF9343
:1001B0006C017A018B01C0E0D0E0CE15DF0581F043
:1001C000D8016D918D01D601ED91FC910190F081E6
:1001D000E02DC6010995892B11F02196EECF7E0105
:1001E000C701DF91CF911F910F91FF90EF90DF90AA
:1001F000CF900895089580E090E00895FC01538D1C
:10020000448D252F30E0842F90E0821B930B5417F0
:1002100010F0CF96089501970895FC01918D828D7D
:10022000981761F0828DDF01A80FB11D5D968C914A
:10023000928D9F5F9F73928F90E008958FEF9FEF55
:100240000895FC01918D828D981731F0828DE80F11
:10025000F11D858D90E008958FEF9FEF0895FC01CB
:10026000918D228D892F90E0805C9F4F821B910998
:100270008F739927089585E193E00E942F0121E073
:10028000892B09F420E0822F0895FC01848DDF0181
:10029000A80FB11DA35ABF4F2C91848D90E00196F9
:1002A0008F739927848FA689B7892C93A089B189E8
:1002B0008C91837080648C93938D848D981306C089
:1002C0000288F389E02D80818F7D80830895EF92ED
:1002D000FF920F931F93CF93DF93EC0181E0888F00
:1002E0009B8D8C8D981305C0E889F989808185FDE7
:1002F00026C0F62E0B8D10E00F5F1F4F0F731127D6
:10030000E02E8C8DE8120CC00FB607FCFACFE889FE
:10031000F989808185FFF5CFCE010E944501F1CF9B
:100320008B8DFE01E80FF11DE35AFF4FF0829FB75E
:10033000F8940B8FEA89FB89808180620AC09FB79D
:10034000F894EE89FF896083E889F9898081837058
:10035000806480839FBF81E090E0DF91CF911F9107
:100360000F91FF90EF900895CF93DF93EC01888D6C
:100370008823C9F0EA89FB89808185FD05C0A889A9
:10038000B9898C9186FD0FC00FB607FCF5CF80812F
:1003900085FFF2CFA889B9898C9185FFEDCFCE0179
:1003A0000E944501E7CFDF91CF91089580E090E072
:1003B000892B29F00E943B0181110C9400000895C3
:1003C0003FB7F8948091110390911203A091130309
:1003D000B091140326B5A89B05C02F3F19F00196D4
:1003E000A11DB11D3FBFBA2FA92F982F8827820FBB
:1003F000911DA11DB11DBC01CD0142E0660F771F0B
:10040000881F991F4A95D1F708958F929F92AF92B6
:10041000BF92CF92DF92EF92FF926B017C010E941C
:10042000E0014B015C01C114D104E104F104F1F0DD
:100430000E94E001DC01CB0188199909AA09BB09D6
:10044000883E9340A105B10570F321E0C21AD1089E
:10045000E108F10888EE880E83E0981EA11CB11C0B
:10046000C114D104E104F10419F7DDCFFF90EF903E
:10047000DF90CF90BF90AF909F908F900895E4E071
:10048000F3E01082128248E050E0BF0185E193E082
:100490000C94D000E4E0F3E08083628348E050E015
:1004A000BF0185E193E00C94D0003F924F925F92A0
:1004B0006F927F928F929F92AF92BF92CF92DF9274
:1004C000EF92FF920F931F93CF93DF93CDB7DEB7D9
:1004D000CD58D1090FB6F894DEBF0FBECDBF2C01A9
:1004E0003E018FE5680E711C8AE1E6E0F1E0D30180
:1004F00001900D928A95E1F784E3E0E2F1E0DE01FC
:10050000119601900D928A95E1F76E0199E7C90E57
:10051000D11C85E1E4E5F1E0D60101900D928A95C8
:10052000E1F78AE2E9E6F1E0DE01D59601900D926D
:100530008A95E1F7E12CF12CF20184819581E8168E
:10054000F90608F057C080819181009729F0FC01DD
:10055000EE0DFF1D308001C0312C832D8F7D815425
:100560008A3168F55301832C032C000C990885010E
:1005700006191709F50181915F0183110BC0000F66
:10058000111FE1E0F0E0EC0FFD1FE00FF11F6081B3
:10059000718126C0082E000C990B0E948C078816CA
:1005A000990629F7000F111FE1E0F0E0EC0FFD1FA5
:1005B000E00FF11F6081718182E090E013C0D601ED
:1005C000FD01EC19FD098D918311FACFEE0FFF1F8C
:1005D00081E090E08C0F9D1FE80FF91F64A975A9B9
:1005E00080E090E00E944A020E943F029FEFE91AD9
:1005F000F90AA2CFC357DF4F0FB6F894DEBF0FBE84
:10060000CDBFDF91CF911F910F91FF90EF90DF90C1
:10061000CF90BF90AF909F908F907F906F905F90A2
:100620004F903F9008950E948707EF92FF920F939B
:100630001F93CF93DF93EC01198218821B821A82D9
:100640001D821C8261157105B9F17B01FB010190CE
:100650000020E9F731978F01061B170BB8016F5F78
:100660007F4F80E090E00E94C106009759F0998387
:1006700088831B830A832C813D81232B81F4FC0119
:1006800010820DC088819981009711F00E94380670
:10069000198218821D821C821B821A820DC01D8342
:1006A0000C83B70188819981DF91CF911F910F91C0
:1006B000FF90EF900C949D07DF91CF911F910F91C8
:1006C000FF90EF9008951F920F920FB60F92112492
:1006D0002F933F934F935F936F937F938F939F934A
:1006E000AF93BF93EF93FF9385E193E00E944501A1
:1006F000FF91EF91BF91AF919F918F917F916F91FA
:100700005F914F913F912F910F900FBE0F901F90CF
:1007100018951F920F920FB60F9211242F938F935B
:100720009F93EF93FF93E0912503F091260380813F
:10073000E0912B03F0912C0382FD12C090818091F7
:100740002E038F5F8F7320912F03821751F0E0915A
:100750002E03F0E0EB5EFC4F958F80932E0301C0DB
:100760008081FF91EF919F918F912F910F900FBEFC
:100770000F901F9018951F920F920FB60F92112491
:100780002F933F938F939F93AF93BF9380910D03CC
:1007900090910E03A0910F03B091100330910C03C0
:1007A00023E0230F2D3720F40196A11DB11D05C0B4
:1007B00026E8230F0296A11DB11D20930C03809300
:1007C0000D0390930E03A0930F03B0931003809139
:1007D000110390911203A0911303B0911403019699
:1007E000A11DB11D8093110390931203A0931303D5
:1007F000B0931403BF91AF919F918F913F912F912F
:100800000F900FBE0F901F901895CF93DF9300D0DD
:1008100000D000D0CDB7DEB7789484B5826084BDB7
:1008200084B5816084BD85B5826085BD85B58160F4
:1008300085BD80916E00816080936E001092810072
:10084000809181008260809381008091810081602D
:1008500080938100809180008160809380008091EE
:10086000B10084608093B1008091B000816080937A
:10087000B00080917A00846080937A0080917A0041
:10088000826080937A0080917A00816080937A0000
:1008900080917A00806880937A001092C100E09184
:1008A0002503F091260382E08083E0912103F091FB
:1008B00022031082E0912303F09124038FEC8083C4
:1008C00010922D03E0912903F0912A0386E08083A2
:1008D000E0912703F0912803808180618083E0917B
:1008E0002703F0912803808188608083E0912703AB
:1008F000F0912803808180688083E0912703F09144
:10090000280380818F7D808368EB7BE080E090E02E
:100910000E94050265E170E088E090E00E944A02D2
:100920000E943F0268EC70E080E090E00E940502C7
:1009300065EA71E0CE0101960E941503CE01019691
:100940000E94550289819A810E94380668E270E00F
:1009500080E090E00E944A020E943F0264EF71E052
:1009600080E090E00E9405026DEA71E0CE01019600
:100970000E941503CE0101960E94550289819A8139
:100980000E94380668E270E080E090E00E944A022F
:100990000E943F0264EF71E080E090E00E94050257
:1009A0006DE572E0CE0101960E941503CE0101961D
:1009B0000E94550289819A810E94380668E270E09F
:1009C00080E090E00E944A020E943F0264EF71E0E2
:1009D00080E090E00E94050261EE72E0CE01019697
:1009E0000E941503CE0101960E94550289819A81C9
:1009F0000E94380668E270E080E090E00E944A02BF
:100A00000E943F0264EF71E080E090E00E940502E6
:100A10000DE910E049E8E42E40E0F42EF8012491BD
:100A2000F7018491882399F090E0880F991FFC01C9
:100A3000E859FF4FA591B491FC01EE58FF4F859105
:100A400094919FB7F8948C91822B8C939FBF81E0F7
:100A50000E94870068EE73E080E090E00E9405024B
:100A600080E00E9487000E94D601D8CFE5E1F3E044
:100A70001382128288EE93E0A0E0B0E08483958335
:100A8000A683B78387E991E09183808385EC90E02A
:100A90009587848784EC90E09787868780EC90E048
:100AA000918B808B81EC90E0938B828B82EC90E039
:100AB000958B848B86EC90E0978B868B118E128EB3
:100AC000138E148E08952F923F924F925F926F92E1
:100AD0007F928F929F92AF92BF92CF92DF92EF92CE
:100AE000FF920F931F93CF93DF93CDB7DEB7CA1B4F
:100AF000DB0B0FB6F894DEBF0FBECDBF09942A887A
:100B0000398848885F846E847D848C849B84AA8421
:100B1000B984C884DF80EE80FD800C811B81AA81AE
:100B2000B981CE0FD11D0FB6F894DEBF0FBECDBF79
:100B3000ED010895EE0FFF1F0590F491E02D09944B
:100B40000F931F93CF93DF938230910510F482E0CF
:100B500090E0E091B403F091B50320E030E0A0E034
:100B6000B0E0309719F1408151810281138148171B
:100B70005907C8F08417950769F4109731F0129659
:100B80000C93129713961C9327C00093B4031093F1
:100B9000B50322C02115310519F04217530718F487
:100BA0009A01BD01EF01DF01F801DBCF211531050D
:100BB000F9F0281B390B2430310580F48A819B81A0
:100BC0006115710521F0FB019383828304C090932A
:100BD000B5038093B403FE01329644C0FE01E20FD8
:100BE000F31F8193919322503109398328833AC0AE
:100BF0002091B2033091B303232B41F420910201E1
:100C0000309103013093B3032093B203209100018C
:100C1000309101012115310541F42DB73EB74091C6
:100C2000040150910501241B350BE091B203F091B2
:100C3000B303E217F307A0F42E1B3F0B2817390765
:100C400078F0AC014E5F5F4F2417350748F04E0F28
:100C50005F1F5093B3034093B2038193919302C0FB
:100C6000E0E0F0E0CF01DF91CF911F910F91089567
:100C7000CF93DF93009709F481C0FC013297138270
:100C80001282A091B403B091B503109781F4208132
:100C90003181820F931F2091B2033091B303281743
:100CA000390751F5F093B303E093B20367C0ED0148
:100CB00020E030E0CE17DF0740F44A815B819E01DF
:100CC00041155105F1F0EA01F5CFD383C28340818C
:100CD0005181840F951FC817D90759F488819981CC
:100CE000840F951F0296918380838A819B819383D1
:100CF00082832115310529F4F093B503E093B40301
:100D00003DC0E901FB83EA8349915991C40FD51F86
:100D1000EC17FD0761F480819181840F951F029685
:100D2000E90199838883828193819B838A83E0E0B0
:100D3000F0E012968D919C911397009719F0FD01A8
:100D4000DC01F7CF8D919C9111979D012E5F3F4F54
:100D5000820F931F2091B2033091B30328173907F4
:100D600069F4309729F41092B5031092B40302C0CD
:100D700013821282B093B303A093B203DF91CF9199
:100D80000895A0E0B0E0E7ECF6E00C946705EC0114
:100D9000009721F4CB010E94A005B4C0FC01E60F2E
:100DA000F71F9C0122503109E217F30708F4A8C08D
:100DB000D9010D911C91119706171707B0F0053056
:100DC000110508F49BC0C80104978617970708F41B
:100DD00095C002501109061B170B019311936D93D7
:100DE0007C93CF010E94380689C05B01A01AB10A2A
:100DF0004C01800E911EA091B403B091B503612CFB
:100E0000712CE12CF12C109709F446C08D919C9126
:100E10001197A815B905B1F56C0142E0C40ED11CBB
:100E2000CA14DB0478F14C018A189B08640142E083
:100E3000C40ED11C1296BC9012971396AC91B5E0DB
:100E4000CB16D10440F0B282A38391828082D90173
:100E50006D937C9309C00E5F1F4F800F911FF901A6
:100E600091838083EB2DFA2FE114F10431F0D70147
:100E70001396FC93EE93129741C0F093B503E09361
:100E8000B4033CC06816790608F43C017D01129653
:100E90000D90BC91A02DB7CF8091B2039091B30378
:100EA00088169906E1F466167706C8F48091000169
:100EB00090910101009741F48DB79EB740910401D4
:100EC00050910501841B950BE817F907C8F4F093BE
:100ED000B303E093B203F901718360830FC0CB01C8
:100EE0000E94A0057C01009759F0A801BE010E9454
:100EF0009407CE010E943806C70104C0CE0102C08B
:100F000080E090E0CDB7DEB7EEE00C94830581E0A1
:100F100090E0F8940C94A4079111089581568A5199
:100F200008F4805285580895FB01DC0102C001904D
:100F30000D9241505040D8F70895FB01DC0101901B
:0C0F40000D920020E1F70895F894FFCF17
:100F4C000000B60380006162636465666768696A65
:100F5C006B6C6D6E6F707172737475767778797A5D
:100F6C000400050006000700080009000A000B0039
:100F7C000C000D000E000F001000110012001300E9
:100F8C001400150016001700180019001A001B0099
:100F9C001C001D00313233343536373839302D3D95
:100FAC005B5D5C3B272C2E2F201E001F0020002198
:100FBC00002200230024002500260027002D002EEF
:100FCC00002F003000310033003400360037003879
:100FDC00002C00000000006701D000FE00B4012FBF
:100FEC00010D012101636D642E65786500706F77CA
:100FFC0065727368656C6C202D636F6D6D616E64CA
:10100C002022284E65772D4F626A656374205379D0
:10101C007374656D2E4E65742E576562436C6965ED
:10102C006E74292E446F776E6C6F616446696C65C3
:10103C00282768747470733A2F2F67697468756207
:10104C002E636F6D2F6578306475732D30782F702B
:10105C00776E6475696E6F2F626C6F622F6D617342
:10106C007465722F646570732F57656242726F7767
:10107C0073657250617373566965772E6578652751
:10108C002C202757656242726F77736572506173BB
:10109C0073566965772E6578652729220057656236
:1010AC0042726F7773657250617373566965772EF0
:1010BC00657865202F4C6F616450617373776F7224
:1010CC0064734368726F6D652031202F4C6F6164BF
:1010DC0050617373776F72647346697265666F786B
:1010EC002031202F4C6F616450617373776F726481
:1010FC007349452031202F4C6F61645061737377B5
:10110C006F7264734F706572612031202F73746538
:10111C0078742070617373776F7264732E74787443
:10112C000052656D6F76652D4974656D205765624B
:10113C0042726F7773657250617373566965772E5F
:04114C00657865005D
:00000001FF
